{
  "contractName": "GalleryContract",
  "abi": [
    {
      "inputs": [
        {
          "internalType": "uint8",
          "name": "_maxMediasByOwner",
          "type": "uint8"
        }
      ],
      "stateMutability": "nonpayable",
      "type": "constructor"
    },
    {
      "anonymous": false,
      "inputs": [
        {
          "indexed": false,
          "internalType": "bool",
          "name": "contractActivation",
          "type": "bool"
        }
      ],
      "name": "EventContractActivation",
      "type": "event"
    },
    {
      "anonymous": false,
      "inputs": [
        {
          "indexed": false,
          "internalType": "address",
          "name": "_from",
          "type": "address"
        },
        {
          "indexed": false,
          "internalType": "uint256",
          "name": "value",
          "type": "uint256"
        }
      ],
      "name": "EventDeposit",
      "type": "event"
    },
    {
      "anonymous": false,
      "inputs": [
        {
          "indexed": true,
          "internalType": "bytes32",
          "name": "hash",
          "type": "bytes32"
        },
        {
          "indexed": true,
          "internalType": "address",
          "name": "owner",
          "type": "address"
        },
        {
          "indexed": false,
          "internalType": "enum GalleryContract.MediaType",
          "name": "mediaType",
          "type": "uint8"
        },
        {
          "indexed": false,
          "internalType": "string",
          "name": "title",
          "type": "string"
        },
        {
          "indexed": false,
          "internalType": "string",
          "name": "tags",
          "type": "string"
        },
        {
          "indexed": false,
          "internalType": "uint256",
          "name": "createdAt",
          "type": "uint256"
        }
      ],
      "name": "EventSavedMedia",
      "type": "event"
    },
    {
      "anonymous": false,
      "inputs": [
        {
          "indexed": true,
          "internalType": "address",
          "name": "previousOwner",
          "type": "address"
        },
        {
          "indexed": true,
          "internalType": "address",
          "name": "newOwner",
          "type": "address"
        }
      ],
      "name": "OwnershipTransferred",
      "type": "event"
    },
    {
      "stateMutability": "nonpayable",
      "type": "fallback"
    },
    {
      "inputs": [
        {
          "internalType": "bytes32",
          "name": "",
          "type": "bytes32"
        }
      ],
      "name": "mediasByHash",
      "outputs": [
        {
          "internalType": "bytes32",
          "name": "hash",
          "type": "bytes32"
        },
        {
          "internalType": "address",
          "name": "owner",
          "type": "address"
        },
        {
          "internalType": "enum GalleryContract.MediaType",
          "name": "mediaType",
          "type": "uint8"
        },
        {
          "internalType": "string",
          "name": "title",
          "type": "string"
        },
        {
          "internalType": "string",
          "name": "tags",
          "type": "string"
        },
        {
          "internalType": "uint256",
          "name": "createdAt",
          "type": "uint256"
        }
      ],
      "stateMutability": "view",
      "type": "function",
      "constant": true
    },
    {
      "inputs": [],
      "name": "owner",
      "outputs": [
        {
          "internalType": "address",
          "name": "",
          "type": "address"
        }
      ],
      "stateMutability": "view",
      "type": "function",
      "constant": true
    },
    {
      "inputs": [
        {
          "internalType": "address",
          "name": "",
          "type": "address"
        },
        {
          "internalType": "uint256",
          "name": "",
          "type": "uint256"
        }
      ],
      "name": "ownersHashes",
      "outputs": [
        {
          "internalType": "bytes32",
          "name": "",
          "type": "bytes32"
        }
      ],
      "stateMutability": "view",
      "type": "function",
      "constant": true
    },
    {
      "inputs": [],
      "name": "renounceOwnership",
      "outputs": [],
      "stateMutability": "nonpayable",
      "type": "function"
    },
    {
      "inputs": [
        {
          "internalType": "address",
          "name": "newOwner",
          "type": "address"
        }
      ],
      "name": "transferOwnership",
      "outputs": [],
      "stateMutability": "nonpayable",
      "type": "function"
    },
    {
      "stateMutability": "payable",
      "type": "receive",
      "payable": true
    },
    {
      "inputs": [],
      "name": "toggleContractActivation",
      "outputs": [],
      "stateMutability": "nonpayable",
      "type": "function"
    },
    {
      "inputs": [],
      "name": "getActivatedContract",
      "outputs": [
        {
          "internalType": "bool",
          "name": "active",
          "type": "bool"
        }
      ],
      "stateMutability": "view",
      "type": "function",
      "constant": true
    },
    {
      "inputs": [
        {
          "internalType": "uint256",
          "name": "_maxMediasByOwner",
          "type": "uint256"
        }
      ],
      "name": "setMaxMediasByOwner",
      "outputs": [],
      "stateMutability": "nonpayable",
      "type": "function"
    },
    {
      "inputs": [],
      "name": "getMaxMediasByOwner",
      "outputs": [
        {
          "internalType": "uint256",
          "name": "maxMedias",
          "type": "uint256"
        }
      ],
      "stateMutability": "view",
      "type": "function",
      "constant": true
    },
    {
      "inputs": [],
      "name": "getGalleryOwnersCount",
      "outputs": [
        {
          "internalType": "uint256",
          "name": "ownersCount",
          "type": "uint256"
        }
      ],
      "stateMutability": "view",
      "type": "function",
      "constant": true
    },
    {
      "inputs": [],
      "name": "getGalleryMediasCount",
      "outputs": [
        {
          "internalType": "uint256",
          "name": "mediasCount",
          "type": "uint256"
        }
      ],
      "stateMutability": "view",
      "type": "function",
      "constant": true
    },
    {
      "inputs": [],
      "name": "getLastDateSavedMedia",
      "outputs": [
        {
          "internalType": "uint256",
          "name": "lastRecordedDate",
          "type": "uint256"
        }
      ],
      "stateMutability": "view",
      "type": "function",
      "constant": true
    },
    {
      "inputs": [
        {
          "internalType": "bytes32",
          "name": "_hash",
          "type": "bytes32"
        },
        {
          "internalType": "enum GalleryContract.MediaType",
          "name": "_mediaType",
          "type": "uint8"
        },
        {
          "internalType": "string",
          "name": "_title",
          "type": "string"
        },
        {
          "internalType": "string",
          "name": "_tags",
          "type": "string"
        }
      ],
      "name": "saveMedia",
      "outputs": [
        {
          "internalType": "bool",
          "name": "",
          "type": "bool"
        }
      ],
      "stateMutability": "nonpayable",
      "type": "function"
    },
    {
      "inputs": [
        {
          "internalType": "bytes32",
          "name": "_hash",
          "type": "bytes32"
        }
      ],
      "name": "getMediaByHash",
      "outputs": [
        {
          "internalType": "bytes32",
          "name": "hash",
          "type": "bytes32"
        },
        {
          "internalType": "address",
          "name": "owner",
          "type": "address"
        },
        {
          "internalType": "enum GalleryContract.MediaType",
          "name": "mediaType",
          "type": "uint8"
        },
        {
          "internalType": "string",
          "name": "title",
          "type": "string"
        },
        {
          "internalType": "string",
          "name": "tags",
          "type": "string"
        },
        {
          "internalType": "uint256",
          "name": "createdAt",
          "type": "uint256"
        }
      ],
      "stateMutability": "view",
      "type": "function",
      "constant": true
    },
    {
      "inputs": [
        {
          "internalType": "address",
          "name": "_address",
          "type": "address"
        }
      ],
      "name": "getHashesByAddress",
      "outputs": [
        {
          "internalType": "address",
          "name": "owner",
          "type": "address"
        },
        {
          "internalType": "bytes32[]",
          "name": "hashes",
          "type": "bytes32[]"
        }
      ],
      "stateMutability": "view",
      "type": "function",
      "constant": true
    },
    {
      "inputs": [
        {
          "internalType": "address",
          "name": "_address",
          "type": "address"
        }
      ],
      "name": "getPartOfMediasByAddress",
      "outputs": [
        {
          "internalType": "address",
          "name": "owner",
          "type": "address"
        },
        {
          "internalType": "bytes32[]",
          "name": "hashes",
          "type": "bytes32[]"
        },
        {
          "internalType": "enum GalleryContract.MediaType[]",
          "name": "mediaTypes",
          "type": "uint8[]"
        }
      ],
      "stateMutability": "view",
      "type": "function",
      "constant": true
    },
    {
      "inputs": [],
      "name": "kill",
      "outputs": [],
      "stateMutability": "nonpayable",
      "type": "function"
    }
  ],
  "bytecode": "0x60806040526001600060146101000a81548160ff02191690831515021790555060008060156101000a81548160ff021916908360ff160217905550600060015534801561004b57600080fd5b506040516123973803806123978339818101604052602081101561006e57600080fd5b8101908080519060200190929190505050600061008f61013d60201b60201c565b9050806000806101000a81548173ffffffffffffffffffffffffffffffffffffffff021916908373ffffffffffffffffffffffffffffffffffffffff1602179055508073ffffffffffffffffffffffffffffffffffffffff16600073ffffffffffffffffffffffffffffffffffffffff167f8be0079c531659141344cd1fd0a4f28419497f9722a3daafe3b4186f6b6457e060405160405180910390a3508060ff1660038190555050610145565b600033905090565b612243806101546000396000f3fe6080604052600436106101025760003560e01c80638012bd6e116100955780638da5cb5b116100645780638da5cb5b14610643578063938db4201461069a5780639e71337a146107bb578063deac721d14610894578063f2fde38b14610a225761017e565b80638012bd6e146102ed57806382c7470f1461031c57806382ddf00814610492578063849a755e146106085761017e565b806351c7b4f2116100d157806351c7b4f214610255578063715018a6146102805780637337f371146102975780637d63b983146102c25761017e565b80630d2bbbf41461018d57806324ec7a9e146101fc57806341c0e1b5146102275780634aa2f2401461023e5761017e565b3661017e57600034111561017c577f124b5543f55bba630805bceb7dfbb80725d894b6f91d0b714d1684be7e3078dd3334604051808373ffffffffffffffffffffffffffffffffffffffff1673ffffffffffffffffffffffffffffffffffffffff1681526020018281526020019250505060405180910390a15b005b34801561018a57600080fd5b50005b34801561019957600080fd5b506101e6600480360360408110156101b057600080fd5b81019080803573ffffffffffffffffffffffffffffffffffffffff16906020019092919080359060200190929190505050610a73565b6040518082815260200191505060405180910390f35b34801561020857600080fd5b50610211610aa1565b6040518082815260200191505060405180910390f35b34801561023357600080fd5b5061023c610aba565b005b34801561024a57600080fd5b50610253610ba3565b005b34801561026157600080fd5b5061026a610ce2565b6040518082815260200191505060405180910390f35b34801561028c57600080fd5b50610295610cec565b005b3480156102a357600080fd5b506102ac610e74565b6040518082815260200191505060405180910390f35b3480156102ce57600080fd5b506102d7610e7e565b6040518082815260200191505060405180910390f35b3480156102f957600080fd5b50610302610e88565b604051808215151515815260200191505060405180910390f35b34801561032857600080fd5b506103556004803603602081101561033f57600080fd5b8101908080359060200190929190505050610e9e565b604051808781526020018673ffffffffffffffffffffffffffffffffffffffff1673ffffffffffffffffffffffffffffffffffffffff16815260200185600181111561039d57fe5b60ff1681526020018060200180602001848152602001838103835286818151815260200191508051906020019080838360005b838110156103eb5780820151818401526020810190506103d0565b50505050905090810190601f1680156104185780820380516001836020036101000a031916815260200191505b50838103825285818151815260200191508051906020019080838360005b83811015610451578082015181840152602081019050610436565b50505050905090810190601f16801561047e5780820380516001836020036101000a031916815260200191505b509850505050505050505060405180910390f35b34801561049e57600080fd5b506104cb600480360360208110156104b557600080fd5b8101908080359060200190929190505050611037565b604051808781526020018673ffffffffffffffffffffffffffffffffffffffff1673ffffffffffffffffffffffffffffffffffffffff16815260200185600181111561051357fe5b60ff1681526020018060200180602001848152602001838103835286818151815260200191508051906020019080838360005b83811015610561578082015181840152602081019050610546565b50505050905090810190601f16801561058e5780820380516001836020036101000a031916815260200191505b50838103825285818151815260200191508051906020019080838360005b838110156105c75780820151818401526020810190506105ac565b50505050905090810190601f1680156105f45780820380516001836020036101000a031916815260200191505b509850505050505050505060405180910390f35b34801561061457600080fd5b506106416004803603602081101561062b57600080fd5b810190808035906020019092919050505061127e565b005b34801561064f57600080fd5b50610658611351565b604051808273ffffffffffffffffffffffffffffffffffffffff1673ffffffffffffffffffffffffffffffffffffffff16815260200191505060405180910390f35b3480156106a657600080fd5b506106e9600480360360208110156106bd57600080fd5b81019080803573ffffffffffffffffffffffffffffffffffffffff16906020019092919050505061137a565b604051808473ffffffffffffffffffffffffffffffffffffffff1673ffffffffffffffffffffffffffffffffffffffff1681526020018060200180602001838103835285818151815260200191508051906020019060200280838360005b83811015610762578082015181840152602081019050610747565b50505050905001838103825284818151815260200191508051906020019060200280838360005b838110156107a4578082015181840152602081019050610789565b505050509050019550505050505060405180910390f35b3480156107c757600080fd5b5061080a600480360360208110156107de57600080fd5b81019080803573ffffffffffffffffffffffffffffffffffffffff1690602001909291905050506115af565b604051808373ffffffffffffffffffffffffffffffffffffffff1673ffffffffffffffffffffffffffffffffffffffff16815260200180602001828103825283818151815260200191508051906020019060200280838360005b8381101561087f578082015181840152602081019050610864565b50505050905001935050505060405180910390f35b3480156108a057600080fd5b50610a08600480360360808110156108b757600080fd5b8101908080359060200190929190803560ff169060200190929190803590602001906401000000008111156108eb57600080fd5b8201836020820111156108fd57600080fd5b8035906020019184600183028401116401000000008311171561091f57600080fd5b91908080601f016020809104026020016040519081016040528093929190818152602001838380828437600081840152601f19601f8201169050808301925050505050505091929192908035906020019064010000000081111561098257600080fd5b82018360208201111561099457600080fd5b803590602001918460018302840111640100000000831117156109b657600080fd5b91908080601f016020809104026020016040519081016040528093929190818152602001838380828437600081840152601f19601f8201169050808301925050505050505091929192905050506116ff565b604051808215151515815260200191505060405180910390f35b348015610a2e57600080fd5b50610a7160048036036020811015610a4557600080fd5b81019080803573ffffffffffffffffffffffffffffffffffffffff169060200190929190505050611d77565b005b60046020528160005260406000208181548110610a8c57fe5b90600052602060002001600091509150505481565b60008060159054906101000a900460ff1660ff16905090565b610ac2611f84565b73ffffffffffffffffffffffffffffffffffffffff166000809054906101000a900473ffffffffffffffffffffffffffffffffffffffff1673ffffffffffffffffffffffffffffffffffffffff1614610b83576040517f08c379a00000000000000000000000000000000000000000000000000000000081526004018080602001828103825260208152602001807f4f776e61626c653a2063616c6c6572206973206e6f7420746865206f776e657281525060200191505060405180910390fd5b610b8b611351565b73ffffffffffffffffffffffffffffffffffffffff16ff5b610bab611f84565b73ffffffffffffffffffffffffffffffffffffffff166000809054906101000a900473ffffffffffffffffffffffffffffffffffffffff1673ffffffffffffffffffffffffffffffffffffffff1614610c6c576040517f08c379a00000000000000000000000000000000000000000000000000000000081526004018080602001828103825260208152602001807f4f776e61626c653a2063616c6c6572206973206e6f7420746865206f776e657281525060200191505060405180910390fd5b600060149054906101000a900460ff1615600060146101000a81548160ff0219169083151502179055507f5cd094a07e750ce28329f3235f39989e870848075d165c665f5c4c40a86770a3600060149054906101000a900460ff16604051808215151515815260200191505060405180910390a1565b6000600154905090565b610cf4611f84565b73ffffffffffffffffffffffffffffffffffffffff166000809054906101000a900473ffffffffffffffffffffffffffffffffffffffff1673ffffffffffffffffffffffffffffffffffffffff1614610db5576040517f08c379a00000000000000000000000000000000000000000000000000000000081526004018080602001828103825260208152602001807f4f776e61626c653a2063616c6c6572206973206e6f7420746865206f776e657281525060200191505060405180910390fd5b600073ffffffffffffffffffffffffffffffffffffffff166000809054906101000a900473ffffffffffffffffffffffffffffffffffffffff1673ffffffffffffffffffffffffffffffffffffffff167f8be0079c531659141344cd1fd0a4f28419497f9722a3daafe3b4186f6b6457e060405160405180910390a360008060006101000a81548173ffffffffffffffffffffffffffffffffffffffff021916908373ffffffffffffffffffffffffffffffffffffffff160217905550565b6000600354905090565b6000600254905090565b60008060149054906101000a900460ff16905090565b60056020528060005260406000206000915090508060000154908060010160009054906101000a900473ffffffffffffffffffffffffffffffffffffffff16908060010160149054906101000a900460ff1690806002018054600181600116156101000203166002900480601f016020809104026020016040519081016040528092919081815260200182805460018160011615610100020316600290048015610f895780601f10610f5e57610100808354040283529160200191610f89565b820191906000526020600020905b815481529060010190602001808311610f6c57829003601f168201915b505050505090806003018054600181600116156101000203166002900480601f0160208091040260200160405190810160405280929190818152602001828054600181600116156101000203166002900480156110275780601f10610ffc57610100808354040283529160200191611027565b820191906000526020600020905b81548152906001019060200180831161100a57829003601f168201915b5050505050908060040154905086565b60008060006060806000611049612068565b600560008981526020019081526020016000206040518060c0016040529081600082015481526020016001820160009054906101000a900473ffffffffffffffffffffffffffffffffffffffff1673ffffffffffffffffffffffffffffffffffffffff1673ffffffffffffffffffffffffffffffffffffffff1681526020016001820160149054906101000a900460ff1660018111156110e557fe5b60018111156110f057fe5b8152602001600282018054600181600116156101000203166002900480601f01602080910402602001604051908101604052809291908181526020018280546001816001161561010002031660029004801561118d5780601f106111625761010080835404028352916020019161118d565b820191906000526020600020905b81548152906001019060200180831161117057829003601f168201915b50505050508152602001600382018054600181600116156101000203166002900480601f01602080910402602001604051908101604052809291908181526020018280546001816001161561010002031660029004801561122f5780601f106112045761010080835404028352916020019161122f565b820191906000526020600020905b81548152906001019060200180831161121257829003601f168201915b505050505081526020016004820154815250509050806000015181602001518260400151836060015184608001518560a001518292508191509650965096509650965096505091939550919395565b611286611f84565b73ffffffffffffffffffffffffffffffffffffffff166000809054906101000a900473ffffffffffffffffffffffffffffffffffffffff1673ffffffffffffffffffffffffffffffffffffffff1614611347576040517f08c379a00000000000000000000000000000000000000000000000000000000081526004018080602001828103825260208152602001807f4f776e61626c653a2063616c6c6572206973206e6f7420746865206f776e657281525060200191505060405180910390fd5b8060038190555050565b60008060009054906101000a900473ffffffffffffffffffffffffffffffffffffffff16905090565b60006060806060600460008673ffffffffffffffffffffffffffffffffffffffff1673ffffffffffffffffffffffffffffffffffffffff168152602001908152602001600020805490506040519080825280602002602001820160405280156113f25781602001602082028038833980820191505090505b5090506060600460008773ffffffffffffffffffffffffffffffffffffffff1673ffffffffffffffffffffffffffffffffffffffff168152602001908152602001600020805490506040519080825280602002602001820160405280156114685781602001602082028038833980820191505090505b50905060008090505b600460008873ffffffffffffffffffffffffffffffffffffffff1673ffffffffffffffffffffffffffffffffffffffff1681526020019081526020016000208054905081101561159c57600460008873ffffffffffffffffffffffffffffffffffffffff1673ffffffffffffffffffffffffffffffffffffffff168152602001908152602001600020818154811061150557fe5b906000526020600020015483828151811061151c57fe5b6020026020010181815250506005600084838151811061153857fe5b6020026020010151815260200190815260200160002060010160149054906101000a900460ff1682828151811061156b57fe5b6020026020010190600181111561157e57fe5b9081600181111561158b57fe5b815250508080600101915050611471565b5085828294509450945050509193909250565b6000606080600460008573ffffffffffffffffffffffffffffffffffffffff1673ffffffffffffffffffffffffffffffffffffffff168152602001908152602001600020805490506040519080825280602002602001820160405280156116255781602001602082028038833980820191505090505b50905060008090505b600460008673ffffffffffffffffffffffffffffffffffffffff1673ffffffffffffffffffffffffffffffffffffffff168152602001908152602001600020805490508110156116f257600460008673ffffffffffffffffffffffffffffffffffffffff1673ffffffffffffffffffffffffffffffffffffffff16815260200190815260200160002081815481106116c257fe5b90600052602060002001548282815181106116d957fe5b602002602001018181525050808060010191505061162e565b5083819250925050915091565b60008060149054906101000a900460ff16611782576040517f08c379a000000000000000000000000000000000000000000000000000000000815260040180806020018281038252601d8152602001807f596f752063616e6e6f7420757365207468697320636f6e74726163742100000081525060200191505060405180910390fd5b600354600460003373ffffffffffffffffffffffffffffffffffffffff1673ffffffffffffffffffffffffffffffffffffffff168152602001908152602001600020805490501061181e576040517f08c379a000000000000000000000000000000000000000000000000000000000815260040180806020018281038252603c81526020018061218e603c913960400191505060405180910390fd5b600073ffffffffffffffffffffffffffffffffffffffff166005600087815260200190815260200160002060010160009054906101000a900473ffffffffffffffffffffffffffffffffffffffff1673ffffffffffffffffffffffffffffffffffffffff16146118f6576040517f08c379a00000000000000000000000000000000000000000000000000000000081526004018080602001828103825260178152602001807f49504653206861736820616c726561647920657869737400000000000000000081525060200191505060405180910390fd5b600083511161196d576040517f08c379a00000000000000000000000000000000000000000000000000000000081526004018080602001828103825260198152602001807f596f75206d7573742070726f766964652061207469746c65210000000000000081525060200191505060405180910390fd5b60008251116119e4576040517f08c379a00000000000000000000000000000000000000000000000000000000081526004018080602001828103825260158152602001807f596f75206d7573742070726f766964652074616721000000000000000000000081525060200191505060405180910390fd5b6000600460003373ffffffffffffffffffffffffffffffffffffffff1673ffffffffffffffffffffffffffffffffffffffff168152602001908152602001600020805490501415611a7057611a556001600060159054906101000a900460ff1660ff16611f8c90919063ffffffff16565b600060156101000a81548160ff021916908360ff1602179055505b6000429050611a7d612068565b6040518060c001604052808881526020013373ffffffffffffffffffffffffffffffffffffffff168152602001876001811115611ab657fe5b815260200186815260200185815260200183815250905080600560008981526020019081526020016000206000820151816000015560208201518160010160006101000a81548173ffffffffffffffffffffffffffffffffffffffff021916908373ffffffffffffffffffffffffffffffffffffffff16021790555060408201518160010160146101000a81548160ff02191690836001811115611b5657fe5b02179055506060820151816002019080519060200190611b779291906120c2565b506080820151816003019080519060200190611b949291906120c2565b5060a08201518160040155905050600460003373ffffffffffffffffffffffffffffffffffffffff1673ffffffffffffffffffffffffffffffffffffffff168152602001908152602001600020879080600181540180825580915050600190039060005260206000200160009091909190915055611c1d60018054611ffd90919063ffffffff16565b600181905550816002819055503373ffffffffffffffffffffffffffffffffffffffff16877f6ac23edd0d08c8163d3df582f5f8c6ad4c036a133f6a6095cf054cc2227866e78888888760405180856001811115611c7757fe5b60ff1681526020018060200180602001848152602001838103835286818151815260200191508051906020019080838360005b83811015611cc5578082015181840152602081019050611caa565b50505050905090810190601f168015611cf25780820380516001836020036101000a031916815260200191505b50838103825285818151815260200191508051906020019080838360005b83811015611d2b578082015181840152602081019050611d10565b50505050905090810190601f168015611d585780820380516001836020036101000a031916815260200191505b50965050505050505060405180910390a3600192505050949350505050565b611d7f611f84565b73ffffffffffffffffffffffffffffffffffffffff166000809054906101000a900473ffffffffffffffffffffffffffffffffffffffff1673ffffffffffffffffffffffffffffffffffffffff1614611e40576040517f08c379a00000000000000000000000000000000000000000000000000000000081526004018080602001828103825260208152602001807f4f776e61626c653a2063616c6c6572206973206e6f7420746865206f776e657281525060200191505060405180910390fd5b600073ffffffffffffffffffffffffffffffffffffffff168173ffffffffffffffffffffffffffffffffffffffff161415611ec6576040517f08c379a00000000000000000000000000000000000000000000000000000000081526004018080602001828103825260268152602001806121686026913960400191505060405180910390fd5b8073ffffffffffffffffffffffffffffffffffffffff166000809054906101000a900473ffffffffffffffffffffffffffffffffffffffff1673ffffffffffffffffffffffffffffffffffffffff167f8be0079c531659141344cd1fd0a4f28419497f9722a3daafe3b4186f6b6457e060405160405180910390a3806000806101000a81548173ffffffffffffffffffffffffffffffffffffffff021916908373ffffffffffffffffffffffffffffffffffffffff16021790555050565b600033905090565b60008082840190508360ff168160ff161015611ff3576040517f08c379a00000000000000000000000000000000000000000000000000000000081526004018080602001828103825260218152602001806121ed6021913960400191505060405180910390fd5b8091505092915050565b60008082840190508381101561205e576040517f08c379a00000000000000000000000000000000000000000000000000000000081526004018080602001828103825260238152602001806121ca6023913960400191505060405180910390fd5b8091505092915050565b6040518060c0016040528060008019168152602001600073ffffffffffffffffffffffffffffffffffffffff168152602001600060018111156120a757fe5b81526020016060815260200160608152602001600081525090565b828054600181600116156101000203166002900490600052602060002090601f016020900481019282601f1061210357805160ff1916838001178555612131565b82800160010185558215612131579182015b82811115612130578251825591602001919060010190612115565b5b50905061213e9190612142565b5090565b61216491905b80821115612160576000816000905550600101612148565b5090565b9056fe4f776e61626c653a206e6577206f776e657220697320746865207a65726f2061646472657373596f752068617665207265616368656420746865206d6178696d756d206e756d626572206f66206d6564696120796f752063616e207265636f72642e536166654d6174682075696e743235363a206164646974696f6e206f766572666c6f77536166654d6174682075696e74383a206164646974696f6e206f766572666c6f77a264697066735822122060fb22d909e63a9588e0b3bc62d2cb9589cd5ef9dd19a7a0de4b52e5471d335c64736f6c63430006000033",
  "source": "pragma solidity >= 0.6.0 < 0.7.0;\n\n/**\n * @file GalleryContract.sol\n * @author Christophe CHARLES <christophe.charles@octo.com>\n * @version 1.0\n *\n * @notice This Gallery contract allows to save the hash\n * of a media (image or video) in the IPFS network.\n */\n\n\n/**\n * @notice Importing Ownable contract (v3.2.0), and using inheritance.\n *\n * This contract provides a basic access control mechanism, where there is\n * an account (an owner) that can be granted exclusive access to specific functions.\n *\n * It will make available the modifier onlyOwner, which can be applied\n * to restrict their use to the owner.\n */\nimport \"@openzeppelin/contracts/access/Ownable.sol\";\n\nimport \"./librairies/SafeMath8.sol\";\nimport \"./librairies/SafeMath256.sol\";\n\ncontract GalleryContract is Ownable {\n\n  using SafeMath8 for uint8;\n  using SafeMath256 for uint256;\n\n  enum MediaType { Image, Video }\n\n  struct Media {\n    bytes32 hash;         // IPFS hash (without 'Qm')\n    address owner;        // Owner's media\n    MediaType mediaType;  // Media type\n    string title;         // Media title\n    string tags;          // Tags with comma separation\n    uint createdAt;       // Timestamp\n  }\n\n  // -------  State variables\n\n  bool private activatedContract = true;\n\n  uint8 private galleryOwnersCount = 0; // Total number of owners's media\n  uint256 private galleryMediasCount = 0; // Total number of medias saved\n\n  uint private lastDateSavedMedia;     // Timestamp of the last saved media\n\n  uint private maxMediasByOwner; // Maximum medias allowed by owner\n\n  mapping (address => bytes32[]) public ownersHashes; // Mapping of owner's hashes medias\n  mapping (bytes32 => Media) public mediasByHash;     // Mapping of hash's media\n\n  // -------\n\n  /**\n   * @notice Funds has arrived into the wallet (record how much).\n   *\n   * @param _from sender address\n   * @param value ether send\n   */\n  event EventDeposit(address _from, uint value);\n\n  /**\n   * @dev Emitted when the contract's owner toggle activation contract.\n   *\n   * @param contractActivation boolean\n   */\n  event EventContractActivation(bool contractActivation);\n\n  /**\n   * @dev Emitted when an user has saved a new media.\n   * `owner` is the account that originated the contract call.\n   *\n   * @param hash IPFS hash\n   * @param owner Owner of media\n   * @param mediaType Media type\n   * @param title Media title\n   * @param tags Media tags\n   * @param createdAt Timestamp\n   */\n  event EventSavedMedia(\n    bytes32 indexed hash,\n    address indexed owner,\n    MediaType mediaType,\n    string title,\n    string tags,\n    uint createdAt\n  );\n\n  /**\n   * @dev Modifier: Against prohibited execution\n   */\n  modifier stopIfInactiveContract {\n    require(activatedContract, \"You cannot use this contract!\");\n    _;\n  }\n\n  /**\n   * @dev Constructor: Initializes the contract setting the deployer as the initial owner.\n   *\n   * @param _maxMediasByOwner uint8 Number of maximum medias allowed by owner.\n   */\n  constructor(uint8 _maxMediasByOwner) public {\n    maxMediasByOwner = _maxMediasByOwner;\n  }\n\n  /*\n   * @notice Gets called when no other function matches.\n   */\n  fallback() external {\n  }\n\n  /*\n   * @notice Gets called when ether is send to the contract.\n   */\n  receive() payable external {\n    if (msg.value > 0) {\n      emit EventDeposit(msg.sender, msg.value);\n    }\n  }\n\n  /**\n   * @dev Activate or deactivate this contract (circuit breaker pattern).\n   */\n  function toggleContractActivation() public onlyOwner {\n    activatedContract = !activatedContract;\n    emit EventContractActivation(activatedContract);\n  }\n\n  /**\n   * @notice Retrieve the activated status of the contract\n   * @return active boolean\n   */\n  function getActivatedContract() public view returns(bool active) {\n    return activatedContract;\n  }\n\n  /**\n   * @dev Set the maximum medias by owner.\n   *\n   * @param _maxMediasByOwner number\n   */\n  function setMaxMediasByOwner(uint _maxMediasByOwner) public onlyOwner {\n    maxMediasByOwner = _maxMediasByOwner;\n  }\n\n  /**\n   * @notice Return the maximum medias by owner.\n   *\n   * @return maxMedias\n   */\n  function getMaxMediasByOwner() public view returns(uint maxMedias) {\n    return maxMediasByOwner;\n  }\n\n  /**\n   * @notice Return the number of owner's media.\n   *\n   * @return ownersCount\n   */\n  function getGalleryOwnersCount() public view returns(uint ownersCount) {\n    return galleryOwnersCount;\n  }\n\n  /**\n   * @notice Return the number of medias saved.\n   *\n   * @return mediasCount\n   */\n  function getGalleryMediasCount() public view returns(uint mediasCount) {\n    return galleryMediasCount;\n  }\n\n  /**\n   * @notice Return the date of the last recorded media.\n   *\n   * @return lastRecordedDate\n   */\n  function getLastDateSavedMedia() public view returns(uint lastRecordedDate) {\n    return lastDateSavedMedia;\n  }\n\n\n  /**\n  * @notice Save all owner's media parameters\n  *\n  * @dev Use the circuit breaker pattern.\n  * Emits an {EventSavedMedia} event.\n  *\n  * @param _hash IPFS hash\n  * @param _mediaType Media type\n  * @param _title Media title\n  * @param _tags Media tags\n  *\n  * @return boolean\n  */\n  function saveMedia(\n      bytes32 _hash,\n      MediaType _mediaType,\n      string memory _title,\n      string memory _tags)\n    public stopIfInactiveContract\n    returns (bool)\n  {\n    require(ownersHashes[msg.sender].length < maxMediasByOwner, \"You have reached the maximum number of media you can record.\");\n\n    require(mediasByHash[_hash].owner == address(0x0), \"IPFS hash already exist\");\n\n    require(bytes(_title).length > 0, \"You must provide a title!\");\n    require(bytes(_tags).length > 0, \"You must provide tag!\");\n\n    if (ownersHashes[msg.sender].length == 0) {\n      galleryOwnersCount = galleryOwnersCount.add(1);\n    }\n\n    uint _createdAt = block.timestamp;\n    Media memory _media = Media(\n      _hash,\n      msg.sender,\n      _mediaType,\n      _title,\n      _tags,\n      _createdAt\n    );\n\n    mediasByHash[_hash] = _media;\n    ownersHashes[msg.sender].push(_hash);\n\n    galleryMediasCount = galleryMediasCount.add(1);\n    lastDateSavedMedia = _createdAt;\n\n    emit EventSavedMedia(_hash, msg.sender, _mediaType, _title, _tags, _createdAt);\n\n    return true;\n  }\n\n  /**\n   * @notice Retrieve media by hash\n   *\n   * @param _hash IPFS hash to search\n   * @return hash\n   * @return owner\n   * @return mediaType\n   * @return title\n   * @return tags\n   * @return createdAt\n   */\n  function getMediaByHash(bytes32 _hash)\n    public view returns (\n      bytes32 hash,\n      address owner,\n      MediaType mediaType,\n      string memory title,\n      string memory tags,\n      uint createdAt)\n  {\n    Media memory media = mediasByHash[_hash];\n    return (\n      media.hash, media.owner, media.mediaType, media.title, media.tags, media.createdAt\n    );\n  }\n\n  /**\n   * @notice Retrieve media's hashes by owner's address\n   *\n   * @param _address owner's media address\n   * @return owner owner's media address\n   * @return hashes array of hashes (in bytes32)\n   */\n  function getHashesByAddress(address _address)\n    public view returns (address owner, bytes32[] memory hashes)\n  {\n    bytes32[] memory _hashes = new bytes32[](ownersHashes[_address].length);\n    for (uint i = 0; i < ownersHashes[_address].length; i++) {\n      _hashes[i] = ownersHashes[_address][i];\n    }\n\n    return (_address, _hashes);\n  }\n\n  /**\n   * @notice Retrieve a part of the medias with hash and media type, by owner's address\n   *\n   * @param _address owner's media address\n   * @return owner owner's media address\n   * @return hashes array of hashes (in bytes32)\n   * @return mediaTypes array of MediaType\n   */\n  function getPartOfMediasByAddress(address _address)\n    public view returns (address owner, bytes32[] memory hashes, MediaType[] memory mediaTypes)\n  {\n    bytes32[] memory _hashes = new bytes32[](ownersHashes[_address].length);\n    MediaType[] memory _mediaTypes = new MediaType[](ownersHashes[_address].length);\n    for (uint i = 0; i < ownersHashes[_address].length; i++) {\n      _hashes[i] = ownersHashes[_address][i];\n      _mediaTypes[i] = mediasByHash[_hashes[i]].mediaType;\n    }\n\n    return (_address, _hashes, _mediaTypes);\n  }\n\n  /*\n   * @notice The only way to remove code from the blockchain is when\n   * a contract at that address performs the \"selfdestruct\" operation.\n   * The remaining Ether stored at that address is sent to a designated target\n   * and then the storage and code is removed from the state.\n   *\n   * @dev This function destroy the contract and reclaim the leftover funds,\n   * by casting owner to address payable.\n   */\n  function kill() public onlyOwner {\n    selfdestruct(address(uint160(owner())));\n  }\n\n}\n",
  "sourcePath": "/Users/christophe.charles/dev/javascript/reactjs/tuto/router/gallery-ipfs/contracts/GalleryContract.sol",
  "compiler": {
    "name": "solc",
    "version": "0.6.0+commit.26b70077.Emscripten.clang"
  },
  "schemaVersion": "3.3.0",
  "updatedAt": "2020-10-19T19:09:27.658Z",
  "networkType": "ethereum",
  "devdoc": {
    "methods": {
      "constructor": {
        "details": "Constructor: Initializes the contract setting the deployer as the initial owner.",
        "params": {
          "_maxMediasByOwner": "uint8 Number of maximum medias allowed by owner."
        }
      },
      "getHashesByAddress(address)": {
        "params": {
          "_address": "owner's media address"
        },
        "returns": {
          "hashes": "array of hashes (in bytes32)",
          "owner": "owner's media address"
        }
      },
      "getMediaByHash(bytes32)": {
        "params": {
          "_hash": "IPFS hash to search"
        },
        "returns": {
          "createdAt": "createdAt",
          "hash": "hash",
          "mediaType": "mediaType",
          "owner": "owner",
          "tags": "tags",
          "title": "title"
        }
      },
      "getPartOfMediasByAddress(address)": {
        "params": {
          "_address": "owner's media address"
        },
        "returns": {
          "hashes": "array of hashes (in bytes32)",
          "mediaTypes": "array of MediaType",
          "owner": "owner's media address"
        }
      },
      "owner()": {
        "details": "Returns the address of the current owner."
      },
      "renounceOwnership()": {
        "details": "Leaves the contract without owner. It will not be possible to call `onlyOwner` functions anymore. Can only be called by the current owner.     * NOTE: Renouncing ownership will leave the contract without an owner, thereby removing any functionality that is only available to the owner."
      },
      "saveMedia(bytes32,uint8,string,string)": {
        "details": "Use the circuit breaker pattern. Emits an {EventSavedMedia} event.",
        "params": {
          "_hash": "IPFS hash",
          "_mediaType": "Media type",
          "_tags": "Media tags",
          "_title": "Media title"
        },
        "returns": {
          "_0": "boolean"
        }
      },
      "setMaxMediasByOwner(uint256)": {
        "details": "Set the maximum medias by owner.",
        "params": {
          "_maxMediasByOwner": "number"
        }
      },
      "toggleContractActivation()": {
        "details": "Activate or deactivate this contract (circuit breaker pattern)."
      },
      "transferOwnership(address)": {
        "details": "Transfers ownership of the contract to a new account (`newOwner`). Can only be called by the current owner."
      }
    }
  },
  "userdoc": {
    "methods": {
      "getActivatedContract()": {
        "notice": "Retrieve the activated status of the contract"
      },
      "getGalleryMediasCount()": {
        "notice": "Return the number of medias saved."
      },
      "getGalleryOwnersCount()": {
        "notice": "Return the number of owner's media."
      },
      "getHashesByAddress(address)": {
        "notice": "Retrieve media's hashes by owner's address"
      },
      "getLastDateSavedMedia()": {
        "notice": "Return the date of the last recorded media."
      },
      "getMaxMediasByOwner()": {
        "notice": "Return the maximum medias by owner."
      },
      "getMediaByHash(bytes32)": {
        "notice": "Retrieve media by hash"
      },
      "getPartOfMediasByAddress(address)": {
        "notice": "Retrieve a part of the medias with hash and media type, by owner's address"
      },
      "saveMedia(bytes32,uint8,string,string)": {
        "notice": "Save all owner's media parameters"
      }
    }
  }
}